:020000040800F2
:10000000780600206D0200087502000877020008DB
:10001000790200087B0200087D0200080000000051
:100020000000000000000000000000007F02000847
:100030008102000800000000830200088502000819
:10004000870200088702000887020008870200086C
:10005000870200088702000887020008870200085C
:10006000870200088702000887020008310600089E
:10007000470600085F060008770600088F0600089C
:10008000A7060008BF0600088702000887020008CC
:10009000870200088702000887020008870200081C
:1000A000870200088702000887020008870200080C
:1000B0005302000887020008870200088702000830
:1000C00087020008870200088702000887020008EC
:1000D00087020008870200088702000887020008DC
:1000E00087020008870200088702000800F002F873
:1000F00000F03AF80AA090E8000C82448344AAF188
:100100000107DA4501D100F02FF8AFF2090EBAE885
:100110000F0013F0010F18BFFB1A43F0010318473B
:100120007806000098060000103A24BF78C878C10D
:10013000FAD8520724BF30C830C144BF04680C60ED
:10014000704700000023002400250026103A28BF35
:1001500078C1FBD8520728BF30C148BF0B60704739
:100160001FB51FBD10B510BD00F0DFFA1146FFF737
:10017000F7FF00F009F800F0FDFA03B4FFF7F2FF13
:1001800003BC00F001FB00003648806940F0050028
:10019000344988613448006840F0030032490860FF
:1001A0000846006820F00C0008600846006840F02F
:1001B000080008600846006840F030000860084603
:1001C000006820F0C00008600846006840F0800029
:1001D00008602448C06940F001002249C8618804D1
:1001E000008B40F4C040890408830846008B40F02F
:1001F000600008830846008C40F00100088408462F
:10020000008C40F01000088440F2E73088856420BC
:100210000887800088868006808940F001008881F8
:100220001C20012181404209920002F1E022C2F823
:10023000001100BF4FF08040008840F040004FF0B8
:10024000804108800846008840F00100088000BF17
:10025000FEE74FF08040008A20F001004FF080411F
:10026000088270470010024000080140094880479A
:1002700009480047FEE7FEE7FEE7FEE7FEE7FEE788
:10028000FEE7FEE7FEE7FEE704480549054A064BA0
:10029000704700008B030008ED0000087800002084
:1002A0007806002078020020780200200CB500209B
:1002B000019000906C48006840F480306A49086002
:1002C00000BF6948006800F4003000900198401CAD
:1002D0000190009818B90198B0F5A06FF1D162486B
:1002E000006800F4003010B10120009001E000200F
:1002F00000900098012843D15C48006840F010004D
:100300005A4908600846006820F003000860084663
:10031000006840F002000860534840685249486055
:100320000846406848600846406840F4806048607D
:100330000846406820F47C1048600846406840F455
:10034000E81048600846006840F08070086000BF10
:100350004548006800F000700028F9D04248406825
:1003600020F00300404948600846406840F0020021
:10037000486000BF3C48406800F00C000828F9D1F4
:100380000CBD10B5FFF792FF10BD10B536480068E0
:1003900040F001003449086008464068344908408C
:1003A0003149486008460068324908402E490860D3
:1003B0000846006820F4802008600846406820F461
:1003C000FE0048604FF41F008860FFF7DAFF4FF02F
:1003D00000602949086010BD10B5002100200022EE
:1003E000214B5B6803F00C0121B1042906D00829D8
:1003F00028D107E0214B224C236027E01F4B204CE3
:10040000236023E0184B5B6803F47010164B5B68A5
:1004100003F48032022303EB904022B9194B43438B
:10042000174C23600DE0104B5B6803F4003323B1DD
:10043000144B4343124C236003E0104B4343104CD6
:10044000236003E00D4B0E4C236000BF00BF064B42
:100450005B68C3F303130C4CE15C094B1B68CB4096
:10046000074C236010BD0000001002400020024035
:100470000000FFF8FFFFF6FE08ED00E000127A0032
:100480000000002000093D000400002070B5054672
:100490000C46012D71D19E48406940F001009C49F5
:1004A0004861082C60D2DFE804F05F04101C293694
:1004B00043500020974988600F2048600B2000F0CF
:1004C0001EF90B2000F007F94EE000209149C861A9
:1004D000F02048600C2000F012F90C2000F0FBF82E
:1004E00042E000208B4908634FF4706048600D20A3
:1004F00000F005F90D2000F0EEF835E00020854908
:1005000048644FF4704048600E2000F0F8F80E2068
:1005100000F0E1F828E000207E4988654FF4702063
:1005200048600F2000F0EBF80F2000F0D4F81BE03B
:1005300000207849C8664FF470004860102000F031
:10054000DEF8102000F0C7F80EE00020714980317D
:1005500008604FF070606F494860112000F0CFF8DC
:10056000112000F0B8F800BF00BF0120A0406A4988
:10057000097808436849087000BF00BF70BD70B5B6
:1005800005460C46012D4AD1082C37D2DFE804F08D
:1005900036040B121920272E0B2000F0A7F800209C
:1005A0005C4988602AE00C2000F0A0F8002059493E
:1005B000C86123E00D2000F099F800205549086338
:1005C0001CE00E2000F092F800205249486415E02B
:1005D0000F2000F08BF800204E4988650EE01020B7
:1005E00000F084F800204B49C86607E0112000F0B5
:1005F0007DF8002047498031086000BF00BF01201E
:10060000A04045490978814343480170007828B9E2
:100610003F48406920F001003D49486100BF00BFEC
:1006200070BD70477047704770477047704770479C
:1006300010B53848006800F00F0436484460204682
:10064000FFF7EFFF10BD10B532480068C0F3031488
:100650002001304948602046FFF7E4FF10BD10B587
:100660002C480068C0F3032420022A494860204631
:10067000FFF7D9FF10BD10B526480068C0F303345A
:100680002003244948602046FFF7CEFF10BD10B577
:1006900020480068C0F3034420041E4948602046F7
:1006A000FFF7C3FF10BD10B51A480068C0F303542C
:1006B0002005184948602046FFF7B8FF10BD10B567
:1006C00014480068C0F303642006124948602046BD
:1006D000FFF7ADFF10BD00F01F020121914042095C
:1006E000920002F1E022C2F80011704700F01F02F0
:1006F00001219140094A430942F82310704700F054
:100700001F0201219140064A430942F82310704715
:1007100000100240000002401400002080E100E0D0
:1007200080E200E0704770477047754600F028F897
:10073000AE4605006946534620F00700854618B0CE
:1007400020B5FFF7A1FDBDE820404FF000064FF0B7
:1007500000074FF000084FF0000B21F00701AC46F6
:10076000ACE8C009ACE8C009ACE8C009ACE8C00915
:100770008D4670470446AFF300802046FFF7FDFC2E
:10078000004870471800002001491820ABBEFEE762
:100790002600020070470000B80700080000002093
:1007A0001800000028010008D007000818000020E9
:1007B000600600004401000800A24A040000000096
:1007C0000000000001020304060708090000000001
:040000050800026D80
:00000001FF
